:020000040800F2
:10000000B8040020D900000839110008A310000826
:1000100000000000000000000000000000000000E0
:100020000000000000000000000000004111000876
:1000300000000000000000003F110008431100080C
:100040000901000809010008090100080901000868
:100050000901000809010008090100080901000858
:100060000901000809010008090100080901000848
:100070000901000809010008090100080901000838
:10008000090100080000000000000000090100084C
:10009000000000000901000809010008090100082A
:1000A000000000000901000809010008F11700081C
:1000B000090100080000000009010008090100080A
:1000C0000448854600F0AEF800480047B51800081F
:1000D000C046C046B80400200C4880F308880C488D
:1000E0000168090E0B4A914205D10B480B4901608A
:1000F0000B480C4901600C4880470C480047FEE75C
:10010000FEE7FEE7FEE7FEE7FEE70000B80400209A
:10011000040000001F000000181002400100000051
:100120000000014000000000BF110008C1000008ED
:1001300030B50B46014600202022012409E00D467F
:10014000D5409D4205D31D469540491B2546954007
:1001500040191546521E002DF1DC30BDF0B51FB41C
:100160000646002082B005464024019100901BE025
:10017000019922460F46304600F020F8049A059B6C
:10018000801A994110D310461946224600F039F8DA
:10019000361A8F410197224601200021009F00F06E
:1001A00030F838184D4100902046641E0028DFDCEE
:1001B000019B00982946324607B0F0BD10B5202AB1
:1001C00004DB0846203AD040002110BD0B46D34046
:1001D000D0402024A21A91400843194610BDD2B243
:1001E00001E00270401C491EFBD270470022F6E776
:1001F00010B513460A4604461946FFF7F0FF20469D
:1002000010BD10B5202A04DB0146203A91400020A1
:1002100010BD914020239C1A0346E34019439040AF
:1002200010BD0000064C0125064E05E0E36807CC32
:100230002B430C3C98471034B442F7D3FFF744FFEC
:10024000DC190008FC19000872B6FEE730B501465B
:1002500020314B780022022B04D0042383630A70E0
:10026000012030BD03681C680E25AC431C60036888
:100270001C68640864001C600123056C1C46C06B8C
:10028000AC4044604B700A70002030BD70B5002453
:10029000014620314A78022A03D0042181630124D7
:1002A00016E0026813680E25AB43136002681368FA
:1002B0005B085B0013600122056C1346AB40C56B05
:1002C0006B604A7000220A70416B002900D0884799
:1002D000204670BD70B5044600F0E0F80546601C8D
:1002E00002D004480078241800F0D8F8401BA0423F
:1002F000FAD370BD00000020F8B5002303240125C7
:10030000B5E02E469E40B44632407CD00E79B6070A
:10031000B60F012E01D0022E17D186682746B646A9
:100320005E00B74000967646BE43B646CF68009E54
:10033000B74076463743876046686746BE430F79C5
:10034000FF06FF0F9F40374347600E79F643B6071D
:100350000ED0C6682746B4465E00B646B74066462D
:10036000BE43B4468F687646B74066463743C7609B
:100370000E79B607B60F022E14D1DE08B600361875
:100380000096366A5F07B446FE0E0F27B646B740A2
:100390006646BE43B4460F697646B7406646374365
:1003A000009E376206682746B4465E00B646B740F0
:1003B0006646BE430F79B446BF07BF0F7646B740C7
:1003C0006646374307604E68B603B60F4ED02B4FD4
:1003D000BE692E43BE61BE699F08F607F60F284E20
:1003E000BF00BE190096B6680F27B4469E07360FA9
:1003F000B646B7406646BE430927FF06B446B84234
:1004000002D100270BE031E01E4FB84201D1012795
:1004100005E01D4FB84201D1022700E005277646CE
:10042000B74066463743009EB760184EB6684F68BF
:100430009643FF0200D51643144FBE60FE684F6816
:100440009643BF0200D51643104FFE607E684F688A
:100450009643BF0300D516430C4F7E603E684F683D
:100460009643FF0300D51643084A16605B1C0A68D2
:100470001646DE4000D044E7F8BD00000010024000
:10048000000001400004004800080048000401404A
:10049000002A01D0816170478162704701488068FD
:1004A0007047000000000020024881680278891827
:1004B000816070470000002010B5064801681022D6
:1004C00011430160032000F007F800F027F8002036
:1004D00010BD00000020024070B504460D4D7D2087
:1004E0002978C000FFF724FE01460B480068FFF79B
:1004F0001FFE00F0A3FB002809D1042C07D2002224
:100500002146401E00F02AF800206C6070BD0120DA
:1005100070BD0000000000200C00002008B5084855
:100520008169012211438161816911400091C26991
:1005300001040A43C261C0690840009008BD000080
:1005400000100240002805DBC106C90E01208840CA
:10055000014908607047000000E100E010B501F0BB
:1005600067F910BDF8B5044600683E4DC00352D58A
:10057000E8690026C00007D4E96928040143E9615D
:10058000E96901400126009137480168C90510D486
:100590000168821511430160FFF780FF074604E000
:1005A000FFF77CFFC01B642824D82F480068C005D3
:1005B000F6D5286A03273F02384020D061683940C9
:1005C00081421CD0286A2A6AB843012109040A43DF
:1005D0002A622A6A8A432A622862C0070FD0FFF77C
:1005E0005DFF009008E0FFF759FF0099411A1F488E
:1005F000814201D90320F8BD286A8007F3D5286A13
:100600006168B84308432862002E04D0E9690120DC
:1006100000078143E9612078C00705D0286BA168F5
:1006200080088000084328632078800605D5286B61
:1006300010218843E168084328632068800305D5BA
:10064000286B80218843616908432863208840051E
:1006500005D5286B40218843216908432863002081
:10066000F8BD000000100240007000408813000038
:1006700070470000F8B50F4606005ED03C4D286874
:10068000C007C00FB84209D228684008400038436C
:1006900028602868C007C00FB8424ED13068354C7A
:1006A00081070CD5400704D560680721090208437B
:1006B00060606068F0218843B1680843606030780A
:1006C000C0072BD07068012810D0022810D0032852
:1006D00011D02168890700292FDA6168890889000B
:1006E00001436160FFF7DAFE009010E0216803E04B
:1006F00021688901EFE7616B8903ECE7FFF7CEFE24
:100700000099411A1C48814201D90320F8BD606854
:100710000C210840716889008842EFD12868C00721
:10072000C00FB8420BD92868400840003843286001
:100730002868C007C00FB84201D00120F8BD30784A
:10074000400706D56068072109028843F16808431D
:10075000606000F031F86168084A0906090F515CD1
:10076000C840074908600320FFF7B6FE0020F8BD27
:10077000002002400010024088130000C419000845
:100780000C000020034801680122D20411430160DB
:10079000704700000010024004480549006849689D
:1007A000044A4905490F515CC84070470C000020BD
:1007B00000100240D419000870B5154A51680C2089
:1007C0000B4603401348042B05D0134D082B03D0D0
:1007D0000C2B00D1284670BD8B02104C1B0FE45C23
:1007E000D26A0E4B1207120F1033C9039A5C890F9D
:1007F000022901D0032901D0002301E0002328466B
:100800000021FFF7ABFC214600F0FAFF70BD0000AD
:100810000010024000127A00006CDC02A4190008EB
:1008200010B5044CA068000603D5FFF721FF802017
:10083000A07210BD00100240FEB5040070D02078F8
:10084000F94EFA4DC00748D068680007800F0128AC
:100850001FD068680007800F022804D16868C003B1
:10086000800F022815D06168012919D00120800469
:10087000002901D0052917D02968B14329602968CA
:1008800081432960606800281BD0FFF707FE0746F8
:1008900013E02868800320D560680028CED01CE0D3
:1008A000286830432860EDE7296801432960F7E7AD
:1008B000FFF7F4FDC01B642870D828688003F7D5C3
:1008C0000BE0FFF7EBFD074604E0FFF7E7FDC01B79
:1008D0006428F1D828688003F7D4207880073FD5B2
:1008E00068680007800F14D068680007800F02282E
:1008F00004D16868C003800F01280AD0E06800288E
:1009000028681ED0012108432860FFF7C7FD07466D
:100910000CE0286880070CD5E068012800D108E0C9
:1009200080E1FFF7BBFDC01B0228C5D828688007FF
:10093000F7D52868F82188432169C9000843286051
:100940000EE0400840002860FFF7A8FD074604E0DD
:10095000FFF7A4FDC01B0228AED828688007F7D493
:100960002078000723D5E0690028686A0FD00121AC
:1009700008436862FFF792FD074604E0FFF78EFD2B
:10098000C01B022898D8686A8007F7D50FE0400896
:1009900040006862FFF782FD074605E0C3E0FFF70D
:1009A0007DFDC01B022887D8686A8007F7D42078AD
:1009B00004274007002861DA00200190E869C000A0
:1009C00008D4E969B8060143E961E96901400120F9
:1009D0000091019096480168C90511D401688215FB
:1009E00011430160FFF75AFD009005E0FFF756FD47
:1009F0000099401A642898D88D480068C005F5D53C
:100A0000A06801280AD0002801D0052811D0286A42
:100A1000400840002862286AB84302E0286A0121A1
:100A200008432862A068002812D0FFF737FD009025
:100A30000AE0286A38432862F0E7FFF72FFD0099A3
:100A4000411A7C4881426ED8286A8007F5D50DE0AE
:100A5000FFF724FD009006E0FFF720FD0099411A02
:100A6000744881425FD8286A8007F5D4019800282D
:100A700004D0E969012000078143E9612078C006BC
:100A800035D5606901280CD0401D686B24D03843EF
:100A90006863686B400840006863FFF7FFFC074627
:100AA00022E0686B38436863686B01210843686320
:100AB000FFF7F4FC074604E0FFF7F0FCC01B022838
:100AC00031D8686B8007F7D5686BF8218843A16936
:100AD000C900084368630AE0B8436863F4E7FFF7B6
:100AE000DDFCC01B02281ED8686B8007F7D4207875
:100AF000800637D568680007800F032814D068681F
:100B00000007800F022804D16868C003800F032803
:100B10000AD0206A0028686B16D030436863FFF75C
:100B2000BDFC06460CE062E0686B80031AD5206AC3
:100B3000012877D116E0FFF7B1FC801B022856D8B8
:100B4000686B8003F7D50DE0B0436863FFF7A6FC40
:100B5000064604E0FFF7A2FC801B022847D8686B1A
:100B60008003F7D4606A002866D069680907890F96
:100B7000022942D0012636060228286805D0B04353
:100B80002860FFF78BFC044633E0B0432860FFF792
:100B900085FC074604E0FFF781FCC01B022826D82D
:100BA00028688001F7D4E86A216B00090001084336
:100BB000E862A16AE06A084369687B22D203914334
:100BC00008436860286830432860FFF767FC0446E4
:100BD00004E0FFF763FC001B022808D828688001A6
:100BE000F7D529E0FFF75AFC001B022801D90320A2
:100BF000FEBD28688001F5D41EE00128F8D06868A1
:100C0000E96A0322D203A36A02409A420AD1090781
:100C1000226B090F914205D10F2189040840E16A36
:100C2000884209D00120FEBD0000010000100240F2
:100C300000700040881300000020F4E7094910B557
:100C4000401E884201D9012010BD074C606103217C
:100C5000081F00F0EDFD0020A061072020610020AA
:100C600010BD0000FFFFFF0000E000E0704770478C
:100C700070470000F8B502680446D06911689368AF
:100C8000A44D06462E4025468035002E71D0A24F39
:100C9000DE07F60F0F4037437ED0C70706D0CF05DB
:100CA00004D5012717626A683A436A60820708D54B
:100CB000DA0706D0276802223A626A6804273A43B4
:100CC0006A60420708D5DA0706D0236804221A6250
:100CD0006A6802231A436A60020709D520220A4083
:100CE000324305D0236808221A626B6813436B6095
:100CF000020509D54A0107D501222368D2021A62EA
:100D00006A6820231A436A606A68002A39D080061C
:100D100006D5880604D5A16E002901D02046884753
:100D2000686821688968490602D4282108422DD0C4
:100D3000204600F017FB21688868400622D5EFF3B3
:100D40001080012282F310888A6840239A438A60C7
:100D500080F31088606F002814D070494163606F81
:100D6000FFF794FA00280CD0606F416B08E000E0B8
:100D700012E0860610D58E060ED5A16EAEE0204696
:100D80008847F8BD2046FFF773FFF8BD2046FFF700
:100D90006FFF00206860F8BD266E012E7ED1C6066A
:100DA0007CD5CE067AD51023136222689068264639
:100DB00040064036002848DA616F08684068000441
:100DC000000CE8D0378B8742E5D9708388692028EA
:100DD00034D0EFF31080012181F3108811681F01D6
:100DE000B943116080F31088EFF31080012181F383
:100DF000108821688A68520852008A6080F310883F
:100E0000EFF31080012181F3108821688A68402760
:100E1000BA438A6080F31088202028600020206672
:100E2000EFF31080012181F3108821680A689A434A
:100E30000A6080F31088606FFFF708FA022060668E
:100E4000308B718B401A81B234E0308B718B401A39
:100E500081B2708B00289ED000299CD0EFF31080C7
:100E6000012686F310881668FF272137BE431660D7
:100E700080F31088EFF31080012282F3108822683B
:100E8000966876087600966080F3108820202860A7
:100E900000202066A066EFF3108000E00EE0012243
:100EA00082F31088226815689D43156080F31088CE
:100EB000022060662046FFF7D9FEF8BDC50208D5BE
:100EC0005B0206D50120000510622046FFF7CFFE29
:100ED000F8BD030606D50B0604D5E16E002900D047
:100EE0004DE7F8BD4006FCD54806FAD52046EFF39D
:100EF0001081012383F31088146840239C431460FD
:100F000081F310882021C1670021C16600F0C8F874
:100F1000F8BD00000F080000200100045113000874
:100F200010B5040003D0E06F002802D007E00120D4
:100F300010BD002178200155204600F027F824201C
:100F4000E06720680168490849000160606A00287C
:100F500002D0204600F034F9204600F001FB0128C1
:100F6000E6D0206841680922D2029143416020689E
:100F700081682A229143816020680168012211431F
:100F80000160204600F082F910BD000010B586B067
:100F9000044614216846FFF729F91749206888425A
:100FA00027D116488269012189030A438261826937
:100FB0000A4005924269C9000A43426140690840FB
:100FC0000590032040020090022001900020029032
:100FD000032003900120049009206946C006FFF712
:100FE0008BF9002211461B20FFF7B8FA1B20FFF7F0
:100FF000A9FA06B010BD0000003801400010024000
:1010000070B580231B58202B01D0022070BD002911
:101010000BD0002A09D0012483682403A34206D1FF
:101020000369002B03D1CB0701D0012070BD002341
:101030000366046863681B020BD5EFF31083012578
:1010400085F3108825680126B6063543256083F3AD
:10105000108800F01DFB70BD10B500680D49884276
:1010600017D10D220C490D48FFF7CAFF0A484178F5
:101070000D290ED1007B55280BD1074800F07CFCD0
:10108000002806D0044800F02DFC14210248FFF788
:10109000ADF810BD00380140A0000020180000206D
:1010A0007047FEE710B586B014216846FFF79EF83A
:1010B00012484269012189050A43426142690A4096
:1010C0000592426949110A43426140690924084076
:1010D000E4060590012202212046FFF7D9F90220FB
:1010E00000900120019000200290032003906946A7
:1010F0002046FFF701F906B010BD000000100240C5
:1011000010B50C480A490160E12149024160002103
:101110008160C16001618161C1610C220162426133
:101120004162FFF7FDFE002801D0FFF78DF810BDEA
:101130000038014018000020FFF772FBFEE77047FF
:10114000704710B5FFF7B0F910BD70B598B03421F5
:101150006846FFF74BF800250D950E950F95182161
:1011600011A81095FFF742F80124009420040A907A
:101170000194000102260B9009960C956846FFF732
:101180005BFB002801D072B6FEE707200D900F959B
:1011900001210E9610950DA8FFF76CFA002801D0DA
:1011A00072B6FEE711A813951194FFF7DBF900283A
:1011B00001D072B6FEE7FFF7E5FA18B070BD7047D0
:1011C00010B5818C090707D501684A680123DB0344
:1011D0009A43436B1A434A60818CC90707D0016860
:1011E0004A6801235B049A43836A1A434A60818CEC
:1011F000890707D501684A6801231B049A43C36A1B
:101200001A434A60818C490707D501684A6801235F
:101210009B049A43036B1A434A60818CC90607D525
:101220000268916801231B039943836B1943916002
:10123000818C890607D501688A6801235B039A437C
:10124000C36B1A438A60818C490612D503685A68B9
:1012500001210905046C8A4322435A60026C8A42C8
:1012600007D10268516803235B059943436C194316
:101270005160818C090607D501684A680123DB04A7
:10128000806C9A4302434A6010BD0000FEB50746D9
:101290000025803704467D60FFF700F90190206843
:1012A0000068264600076036002819DA27480090B3
:1012B0000121002249052046019B00F04DFA00283B
:1012C0000ED0EFF31080012181F3108821680A68A5
:1012D00080239A430A6080F310882020E06729E089
:1012E00020680068400728D5184800900121002296
:1012F00089052046019B00F02FFA00281DD0EFF34E
:101300001080012181F3108821680A68FF232133AE
:101310009A430A6080F31088EFF31080012181F373
:10132000108821688A68520852008A6080F3108809
:101330002020386035760320FEBD2020E06738602D
:101340002566656635760020FEBD0000FFFFFF01C3
:1013500010B5406A0022014640314A834A82FFF7B5
:1013600087FC10BD10B5EFF31081012282F31088C5
:1013700002681368FF242134A343136081F31088AB
:10138000EFF31081012282F31088026893685B08F2
:101390005B00936081F31088016E01290BD1EFF39C
:1013A0001081012282F31088026813681024A3437D
:1013B000136081F31088202280210A5000210166E9
:1013C000816610BD70B501464031034680338C8B79
:1013D0001D680268222D04D090690821084390619D
:1013E00070BD928C456D22402A80426D921C4265F0
:1013F0004A8B521E4A834A8B002AF1D1EFF31082A6
:10140000012484F3108804682568FF262136B5433B
:10141000256082F31088EFF31082012484F3108892
:101420000468A5686D086D00A56082F3108820220D
:101430001A600023836643660468626812020BD553
:10144000EFF31082012585F3108825680126B60682
:10145000B543256082F31088026E012A02D0FFF79F
:10146000FBFD70BD0366EFF31082012383F3108848
:101470000468256810239D43256082F31088026864
:10148000D469E443E40600D41362098BFFF7EEFB52
:1014900070BD70B501464031034680338C8B1D68AA
:1014A0000268222D04D0906908210843906170BD24
:1014B000928C2240446D2270426D521C42654A8BD0
:1014C000521E4A834A8B002AF1D1EFF31082012485
:1014D00084F3108804682568FF262136B54325600B
:1014E00082F31088EFF31082012484F310880468DB
:1014F000A5686D086D00A56082F3108820221A602F
:101500000023836643660468626812020BD5EFF31A
:101510001082012585F3108825680126B606B5439B
:10152000256082F31088026E012A02D0FFF794FD35
:1015300070BD0366EFF31082012383F31088046803
:10154000256810239D43256082F310880268D469C2
:10155000E443E40600D41362098BFFF787FB70BDF8
:1015600070B5044680682169E26908436169002515
:1015700011432268084311683F4B19400143116031
:1015800021684868032212039043E26810434860D0
:10159000A169206A084321688A680B231B029A43C9
:1015A00002438A6035492068884210D13448006B74
:1015B0008007800F0ED0012805D0022805D003280F
:1015C0000AD1022109E0042107E0082105E02D49A4
:1015D000884201D1002100E010210120E369C0030D
:1015E000294A2A4E834222D1002906D0022907D057
:1015F000042907D0082935D108E0FFF7CDF803E02A
:10160000104603E0FFF7D8F8002830D061684000AA
:101610004A088018FEF78CFD01461039B14221D8E6
:101620001A49491C01400007400F08431DE00029EA
:1016300006D0022907D0042907D0082912D108E0D2
:10164000FFF7AAF803E0104603E0FFF7B5F800281B
:101650000DD061684A081018FEF76AFD014610397E
:10166000B14201D9012502E080B22168C8600020A2
:10167000A066E066284670BDF369FFEF00380140C0
:10168000001002400044004000127A00EFFF00000A
:1016900070B54165014640310A834A830023836661
:1016A000012284681203FF25944204D10469002CAE
:1016B00013D1264C0AE07F26002C09D001252D07E6
:1016C000AC420CD10469002C05D03F248C8307E088
:1016D0000469002C01D08E8302E08D8300E08B83AF
:1016E000014680314B6022230B60EFF31081012310
:1016F00083F3108803689C6801252C439C6081F368
:1017000010888168914202D1016900290ED01049E8
:101710008166016900290BD0EFF31081012282F369
:10172000108800680268FF23213309E009498166B7
:10173000EFF31081012282F31088006802682023F1
:101740001A43026081F31088002070BDFF01000081
:1017500093140008C5130008FFB5064680360546F9
:1017600081B00F460446603534E00A98401C31D001
:10177000FEF794FE0499411A0A98814218D800286D
:1017800016D020680168490724D5802F22D0402F29
:1017900020D0C169C94309070CD408270762204635
:1017A000FFF7E0FD776000202876012005B0F0BD4E
:1017B0000320FBE7C069C04300050BD4012021686A
:1017C000C00208622046FFF7CDFD20207060002097
:1017D0002876EDE72068C1693846884305D00021A6
:1017E00003988142C1D00020E0E70121F8E7000022
:1017F00010B50248FFF73EFA10BD000018000020A7
:10180000F8B5040C8BB2264682B25E430D0C10462E
:10181000370C5843360480190021794116466E432F
:10182000370C36048019794126466E438919F8BD74
:101830008307FF22DB0E9A408907090E9940002892
:1018400008DB830809489B001B181868904308436D
:10185000186070470007000F0838830804489B0091
:101860001B18D86990430843D861704700E400E032
:1018700000ED00E002E008C8121F08C1002AFAD1FA
:1018800070477047002001E001C1121F002AFBD100
:10189000704710B5092001220221C006FEF7F8FDAD
:1018A00010BD10B5092000220221C006FEF7F0FD90
:1018B00010BD0000FEF700FEFFF747FCFFF7F2FB4C
:1018C0000548FEF707FDFFF71BFC0D2203490448FE
:1018D000FFF796FBFEE70000B80B0000A000002019
:1018E0001800002010B50178012902D0042904D085
:1018F00000E08078FFF7CDFF10BD81780229F9D193
:101900008279437911021943134A49BA1180037A43
:10191000C47919022143437A49BA09041B02807A27
:10192000194301430D485160814211D00C48814256
:101930000ED00C4881420BD00B48814208D00B4896
:10194000814205D00A48814202D00A488142D3D15F
:10195000FFF7A7FF10BD000010000020E3051134C1
:10196000E3070E54E303FEC4E289D124E9EBC1444A
:10197000EB569D44E30FC8B430B54218203A00231B
:10198000947F1A46891E03E0855C6B40521CD2B2DC
:101990008A42F9DBD843C0B2844201D1012030BD74
:1019A000002030BD02030405060708090A0B0C0DD0
:1019B0000E0F10100102030405060708090A0B0C9C
:1019C0000D0E0F10000000000000000001020304D3
:1019D000060708090000000001020304FC190008C2
:1019E000000000201800000074180008141A0008F5
:1019F00018000020A0040000841800080100000066
:101A0000040000000000000000127A000000000046
:041A100000000000D2
:04000005080000C12E
:00000001FF
